{
  "contractName": "Main",
  "abi": [
    {
      "inputs": [],
      "stateMutability": "nonpayable",
      "type": "constructor"
    },
    {
      "inputs": [
        {
          "internalType": "string",
          "name": "_username",
          "type": "string"
        },
        {
          "internalType": "string",
          "name": "_password",
          "type": "string"
        }
      ],
      "name": "registration",
      "outputs": [],
      "stateMutability": "nonpayable",
      "type": "function"
    },
    {
      "inputs": [
        {
          "internalType": "string",
          "name": "_password",
          "type": "string"
        }
      ],
      "name": "login",
      "outputs": [],
      "stateMutability": "nonpayable",
      "type": "function"
    },
    {
      "inputs": [],
      "name": "logout",
      "outputs": [],
      "stateMutability": "nonpayable",
      "type": "function"
    },
    {
      "inputs": [
        {
          "internalType": "address",
          "name": "_userAddress",
          "type": "address"
        }
      ],
      "name": "getUser",
      "outputs": [
        {
          "components": [
            {
              "internalType": "address",
              "name": "login",
              "type": "address"
            },
            {
              "internalType": "string",
              "name": "password",
              "type": "string"
            },
            {
              "internalType": "string",
              "name": "username",
              "type": "string"
            },
            {
              "internalType": "string",
              "name": "avatarURL",
              "type": "string"
            }
          ],
          "internalType": "struct Main.User",
          "name": "",
          "type": "tuple"
        }
      ],
      "stateMutability": "view",
      "type": "function",
      "constant": true
    },
    {
      "inputs": [
        {
          "internalType": "string",
          "name": "_text",
          "type": "string"
        }
      ],
      "name": "createPost",
      "outputs": [],
      "stateMutability": "nonpayable",
      "type": "function"
    },
    {
      "inputs": [
        {
          "internalType": "address",
          "name": "_userAddress",
          "type": "address"
        }
      ],
      "name": "getUserPosts",
      "outputs": [
        {
          "components": [
            {
              "components": [
                {
                  "internalType": "address",
                  "name": "login",
                  "type": "address"
                },
                {
                  "internalType": "string",
                  "name": "password",
                  "type": "string"
                },
                {
                  "internalType": "string",
                  "name": "username",
                  "type": "string"
                },
                {
                  "internalType": "string",
                  "name": "avatarURL",
                  "type": "string"
                }
              ],
              "internalType": "struct Main.User",
              "name": "author",
              "type": "tuple"
            },
            {
              "internalType": "string",
              "name": "text",
              "type": "string"
            },
            {
              "internalType": "uint256",
              "name": "likes",
              "type": "uint256"
            },
            {
              "internalType": "uint256",
              "name": "views",
              "type": "uint256"
            },
            {
              "internalType": "uint256",
              "name": "datetimeCreated",
              "type": "uint256"
            }
          ],
          "internalType": "struct Main.Post[]",
          "name": "",
          "type": "tuple[]"
        }
      ],
      "stateMutability": "view",
      "type": "function",
      "constant": true
    },
    {
      "inputs": [
        {
          "internalType": "address",
          "name": "_userAddress",
          "type": "address"
        }
      ],
      "name": "isUserRegistered",
      "outputs": [
        {
          "internalType": "bool",
          "name": "",
          "type": "bool"
        }
      ],
      "stateMutability": "view",
      "type": "function",
      "constant": true
    },
    {
      "inputs": [
        {
          "internalType": "string",
          "name": "_avatarURL",
          "type": "string"
        }
      ],
      "name": "updateUserAvatarURL",
      "outputs": [],
      "stateMutability": "nonpayable",
      "type": "function"
    }
  ],
  "bytecode": "0x6080604052600060015534801561001557600080fd5b50336000806101000a81548173ffffffffffffffffffffffffffffffffffffffff021916908373ffffffffffffffffffffffffffffffffffffffff1602179055506119ee806100656000396000f3fe608060405234801561001057600080fd5b50600436106100885760003560e01c806348419dc81161005b57806348419dc8146100ff5780636f77926b1461011b5780639a2194a91461014b578063c7303c611461017b57610088565b8063163f75221461008d5780631f3c99c3146100bd5780633a7d280c146100c7578063428f7269146100e3575b600080fd5b6100a760048036038101906100a29190611128565b610197565b6040516100b49190611590565b60405180910390f35b6100c5610232565b005b6100e160048036038101906100dc9190611151565b610318565b005b6100fd60048036038101906100f89190611151565b6104e4565b005b61011960048036038101906101149190611192565b610544565b005b61013560048036038101906101309190611128565b610757565b604051610142919061162b565b60405180910390f35b61016560048036038101906101609190611128565b6109bc565b604051610172919061156e565b60405180910390f35b61019560048036038101906101909190611151565b610db6565b005b60008073ffffffffffffffffffffffffffffffffffffffff16600260008473ffffffffffffffffffffffffffffffffffffffff1673ffffffffffffffffffffffffffffffffffffffff16815260200190815260200160002060000160009054906101000a900473ffffffffffffffffffffffffffffffffffffffff1673ffffffffffffffffffffffffffffffffffffffff1614159050919050565b600360003373ffffffffffffffffffffffffffffffffffffffff1673ffffffffffffffffffffffffffffffffffffffff16815260200190815260200160002060009054906101000a900460ff166102be576040517f08c379a00000000000000000000000000000000000000000000000000000000081526004016102b5906115cb565b60405180910390fd5b6000600360003373ffffffffffffffffffffffffffffffffffffffff1673ffffffffffffffffffffffffffffffffffffffff16815260200190815260200160002060006101000a81548160ff021916908315150217905550565b600073ffffffffffffffffffffffffffffffffffffffff16600260003373ffffffffffffffffffffffffffffffffffffffff1673ffffffffffffffffffffffffffffffffffffffff16815260200190815260200160002060000160009054906101000a900473ffffffffffffffffffffffffffffffffffffffff1673ffffffffffffffffffffffffffffffffffffffff1614156103ea576040517f08c379a00000000000000000000000000000000000000000000000000000000081526004016103e19061160b565b60405180910390fd5b8080519060200120600260003373ffffffffffffffffffffffffffffffffffffffff1673ffffffffffffffffffffffffffffffffffffffff1681526020019081526020016000206001016040516104419190611557565b604051809103902014610489576040517f08c379a0000000000000000000000000000000000000000000000000000000008152600401610480906115ab565b60405180910390fd5b6001600360003373ffffffffffffffffffffffffffffffffffffffff1673ffffffffffffffffffffffffffffffffffffffff16815260200190815260200160002060006101000a81548160ff02191690831515021790555050565b6000600260003373ffffffffffffffffffffffffffffffffffffffff1673ffffffffffffffffffffffffffffffffffffffff16815260200190815260200160002090508181600301908051906020019061053f929190610fca565b505050565b600073ffffffffffffffffffffffffffffffffffffffff16600260003373ffffffffffffffffffffffffffffffffffffffff1673ffffffffffffffffffffffffffffffffffffffff16815260200190815260200160002060000160009054906101000a900473ffffffffffffffffffffffffffffffffffffffff1673ffffffffffffffffffffffffffffffffffffffff1614610615576040517f08c379a000000000000000000000000000000000000000000000000000000000815260040161060c906115eb565b60405180910390fd5b60405180608001604052803373ffffffffffffffffffffffffffffffffffffffff16815260200182815260200183815260200160405180602001604052806000815250815250600260003373ffffffffffffffffffffffffffffffffffffffff1673ffffffffffffffffffffffffffffffffffffffff16815260200190815260200160002060008201518160000160006101000a81548173ffffffffffffffffffffffffffffffffffffffff021916908373ffffffffffffffffffffffffffffffffffffffff16021790555060208201518160010190805190602001906106fd929190610fca565b50604082015181600201908051906020019061071a929190610fca565b506060820151816003019080519060200190610737929190610fca565b509050506001600081548092919061074e90611816565b91905055505050565b61075f611050565b600260008373ffffffffffffffffffffffffffffffffffffffff1673ffffffffffffffffffffffffffffffffffffffff1681526020019081526020016000206040518060800160405290816000820160009054906101000a900473ffffffffffffffffffffffffffffffffffffffff1673ffffffffffffffffffffffffffffffffffffffff1673ffffffffffffffffffffffffffffffffffffffff16815260200160018201805461080f906117b3565b80601f016020809104026020016040519081016040528092919081815260200182805461083b906117b3565b80156108885780601f1061085d57610100808354040283529160200191610888565b820191906000526020600020905b81548152906001019060200180831161086b57829003601f168201915b505050505081526020016002820180546108a1906117b3565b80601f01602080910402602001604051908101604052809291908181526020018280546108cd906117b3565b801561091a5780601f106108ef5761010080835404028352916020019161091a565b820191906000526020600020905b8154815290600101906020018083116108fd57829003601f168201915b50505050508152602001600382018054610933906117b3565b80601f016020809104026020016040519081016040528092919081815260200182805461095f906117b3565b80156109ac5780601f10610981576101008083540402835291602001916109ac565b820191906000526020600020905b81548152906001019060200180831161098f57829003601f168201915b5050505050815250509050919050565b6060600360003373ffffffffffffffffffffffffffffffffffffffff1673ffffffffffffffffffffffffffffffffffffffff16815260200190815260200160002060009054906101000a900460ff16610a4a576040517f08c379a0000000000000000000000000000000000000000000000000000000008152600401610a41906115cb565b60405180910390fd5b600460008373ffffffffffffffffffffffffffffffffffffffff1673ffffffffffffffffffffffffffffffffffffffff168152602001908152602001600020805480602002602001604051908101604052809291908181526020016000905b82821015610dab57838290600052602060002090600802016040518060a0016040529081600082016040518060800160405290816000820160009054906101000a900473ffffffffffffffffffffffffffffffffffffffff1673ffffffffffffffffffffffffffffffffffffffff1673ffffffffffffffffffffffffffffffffffffffff168152602001600182018054610b42906117b3565b80601f0160208091040260200160405190810160405280929190818152602001828054610b6e906117b3565b8015610bbb5780601f10610b9057610100808354040283529160200191610bbb565b820191906000526020600020905b815481529060010190602001808311610b9e57829003601f168201915b50505050508152602001600282018054610bd4906117b3565b80601f0160208091040260200160405190810160405280929190818152602001828054610c00906117b3565b8015610c4d5780601f10610c2257610100808354040283529160200191610c4d565b820191906000526020600020905b815481529060010190602001808311610c3057829003601f168201915b50505050508152602001600382018054610c66906117b3565b80601f0160208091040260200160405190810160405280929190818152602001828054610c92906117b3565b8015610cdf5780601f10610cb457610100808354040283529160200191610cdf565b820191906000526020600020905b815481529060010190602001808311610cc257829003601f168201915b5050505050815250508152602001600482018054610cfc906117b3565b80601f0160208091040260200160405190810160405280929190818152602001828054610d28906117b3565b8015610d755780601f10610d4a57610100808354040283529160200191610d75565b820191906000526020600020905b815481529060010190602001808311610d5857829003601f168201915b50505050508152602001600582015481526020016006820154815260200160078201548152505081526020019060010190610aa9565b505050509050919050565b600360003373ffffffffffffffffffffffffffffffffffffffff1673ffffffffffffffffffffffffffffffffffffffff16815260200190815260200160002060009054906101000a900460ff16610e42576040517f08c379a0000000000000000000000000000000000000000000000000000000008152600401610e39906115cb565b60405180910390fd5b6000610e4d33610757565b9050600460003373ffffffffffffffffffffffffffffffffffffffff1673ffffffffffffffffffffffffffffffffffffffff1681526020019081526020016000206040518060a00160405280838152602001848152602001600081526020016000815260200142815250908060018154018082558091505060019003906000526020600020906008020160009091909190915060008201518160000160008201518160000160006101000a81548173ffffffffffffffffffffffffffffffffffffffff021916908373ffffffffffffffffffffffffffffffffffffffff1602179055506020820151816001019080519060200190610f4c929190610fca565b506040820151816002019080519060200190610f69929190610fca565b506060820151816003019080519060200190610f86929190610fca565b5050506020820151816004019080519060200190610fa5929190610fca565b5060408201518160050155606082015181600601556080820151816007015550505050565b828054610fd6906117b3565b90600052602060002090601f016020900481019282610ff8576000855561103f565b82601f1061101157805160ff191683800117855561103f565b8280016001018555821561103f579182015b8281111561103e578251825591602001919060010190611023565b5b50905061104c919061108e565b5090565b6040518060800160405280600073ffffffffffffffffffffffffffffffffffffffff1681526020016060815260200160608152602001606081525090565b5b808211156110a757600081600090555060010161108f565b5090565b60006110be6110b984611672565b61164d565b9050828152602081018484840111156110d657600080fd5b6110e1848285611771565b509392505050565b6000813590506110f8816119a1565b92915050565b600082601f83011261110f57600080fd5b813561111f8482602086016110ab565b91505092915050565b60006020828403121561113a57600080fd5b6000611148848285016110e9565b91505092915050565b60006020828403121561116357600080fd5b600082013567ffffffffffffffff81111561117d57600080fd5b611189848285016110fe565b91505092915050565b600080604083850312156111a557600080fd5b600083013567ffffffffffffffff8111156111bf57600080fd5b6111cb858286016110fe565b925050602083013567ffffffffffffffff8111156111e857600080fd5b6111f4858286016110fe565b9150509250929050565b600061120a83836113e9565b905092915050565b61121b81611729565b82525050565b600061122c826116c8565b61123681856116eb565b935083602082028501611248856116a3565b8060005b85811015611284578484038952815161126585826111fe565b9450611270836116de565b925060208a0199505060018101905061124c565b50829750879550505050505092915050565b61129f8161173b565b82525050565b600081546112b2816117b3565b6112bc81866116fc565b945060018216600081146112d757600181146112e85761131b565b60ff1983168652818601935061131b565b6112f1856116b3565b60005b83811015611313578154818901526001820191506020810190506112f4565b838801955050505b50505092915050565b600061132f826116d3565b6113398185611707565b9350611349818560208601611780565b611352816118ec565b840191505092915050565b600061136a600f83611718565b9150611375826118fd565b602082019050919050565b600061138d601f83611718565b915061139882611926565b602082019050919050565b60006113b0601783611718565b91506113bb8261194f565b602082019050919050565b60006113d3601083611718565b91506113de82611978565b602082019050919050565b600060a08301600083015184820360008601526114068282611466565b915050602083015184820360208601526114208282611324565b91505060408301516114356040860182611548565b5060608301516114486060860182611548565b50608083015161145b6080860182611548565b508091505092915050565b600060808301600083015161147e6000860182611212565b50602083015184820360208601526114968282611324565b915050604083015184820360408601526114b08282611324565b915050606083015184820360608601526114ca8282611324565b9150508091505092915050565b60006080830160008301516114ef6000860182611212565b50602083015184820360208601526115078282611324565b915050604083015184820360408601526115218282611324565b9150506060830151848203606086015261153b8282611324565b9150508091505092915050565b61155181611767565b82525050565b600061156382846112a5565b915081905092915050565b600060208201905081810360008301526115888184611221565b905092915050565b60006020820190506115a56000830184611296565b92915050565b600060208201905081810360008301526115c48161135d565b9050919050565b600060208201905081810360008301526115e481611380565b9050919050565b60006020820190508181036000830152611604816113a3565b9050919050565b60006020820190508181036000830152611624816113c6565b9050919050565b6000602082019050818103600083015261164581846114d7565b905092915050565b6000611657611668565b905061166382826117e5565b919050565b6000604051905090565b600067ffffffffffffffff82111561168d5761168c6118bd565b5b611696826118ec565b9050602081019050919050565b6000819050602082019050919050565b60008190508160005260206000209050919050565b600081519050919050565b600081519050919050565b6000602082019050919050565b600082825260208201905092915050565b600081905092915050565b600082825260208201905092915050565b600082825260208201905092915050565b600061173482611747565b9050919050565b60008115159050919050565b600073ffffffffffffffffffffffffffffffffffffffff82169050919050565b6000819050919050565b82818337600083830152505050565b60005b8381101561179e578082015181840152602081019050611783565b838111156117ad576000848401525b50505050565b600060028204905060018216806117cb57607f821691505b602082108114156117df576117de61188e565b5b50919050565b6117ee826118ec565b810181811067ffffffffffffffff8211171561180d5761180c6118bd565b5b80604052505050565b600061182182611767565b91507fffffffffffffffffffffffffffffffffffffffffffffffffffffffffffffffff8214156118545761185361185f565b5b600182019050919050565b7f4e487b7100000000000000000000000000000000000000000000000000000000600052601160045260246000fd5b7f4e487b7100000000000000000000000000000000000000000000000000000000600052602260045260246000fd5b7f4e487b7100000000000000000000000000000000000000000000000000000000600052604160045260246000fd5b6000601f19601f8301169050919050565b7f57726f6e672070617373776f72642e0000000000000000000000000000000000600082015250565b7f596f75206d757374206c6f67696e20696e20796f7572206163636f756e742e00600082015250565b7f4163636f756e7420616c7265616479206578697374732e000000000000000000600082015250565b7f4c6f67696e206e6f7420666f756e642e00000000000000000000000000000000600082015250565b6119aa81611729565b81146119b557600080fd5b5056fea26469706673582212204bbeccb4592cac9f581479eeb98efee1f4d824c74a8a43ef5cb70dc76175613164736f6c63430008020033",
  "immutableReferences": {},
  "source": "pragma solidity >=0.8.0 <0.9.0;\n\ncontract Main {\n    address owner;\n    uint usersCounter = 0;\n\n    // mappings\n    mapping(address => User) accounts;\n    mapping(address => bool) isLogged;\n    mapping(address => Post[]) posts;\n\n    // object templates\n    struct User {\n        address login;\n        string password;\n        string username;\n        string avatarURL;\n    }\n\n    struct Post {\n        User author;\n        string text;\n        uint likes;\n        uint views;\n        uint datetimeCreated;\n    }\n\n    // modifiers\n    modifier onlyIflLogged {\n        require(isLogged[msg.sender], \"You must login in your account.\");\n        _;\n    }\n\n    modifier onlyIfOwner {\n        require(msg.sender == owner, \"You are not owner!\");\n        _;\n    }\n\n    constructor() {\n        owner = msg.sender;\n    }\n\n    function registration(string memory _username, string memory _password) public {\n        require(accounts[msg.sender].login == address(0), \"Account already exists.\");\n\n        accounts[msg.sender] = User({\n            login: msg.sender,\n            password: _password,\n            username: _username,\n            avatarURL: \"\"\n        });\n\n        usersCounter++;\n    }\n\n    function login(string memory _password) public {\n        require(accounts[msg.sender].login != address(0), \"Login not found.\");\n        require(keccak256(bytes(accounts[msg.sender].password)) == keccak256(bytes(_password)), \"Wrong password.\");\n\n        isLogged[msg.sender] = true;\n    }\n\n    function logout() public onlyIflLogged {\n        isLogged[msg.sender] = false;\n    }\n\n    function getUser(address _userAddress) public view returns(User memory) {\n        return accounts[_userAddress];\n    }\n\n    function createPost(string memory _text) public onlyIflLogged {\n        User memory user = getUser(msg.sender);\n\n        posts[msg.sender].push(Post({\n            author: user,\n            text: _text,\n            likes: 0,\n            views: 0,\n            datetimeCreated: block.timestamp\n        }));\n    }\n\n    function getUserPosts(address _userAddress) external view onlyIflLogged returns(Post[] memory) {\n        return posts[_userAddress];\n    }\n\n    function isUserRegistered(address _userAddress) external view returns(bool) {\n        return accounts[_userAddress].login != address(0);\n    }\n\n    function updateUserAvatarURL(string memory _avatarURL) public {\n        User storage user = accounts[msg.sender];\n\n        user.avatarURL = _avatarURL;\n    }\n}\n",
  "sourcePath": "/Users/quasarity/WebstormProjects/blockchain-pet-project/contracts/contracts/main.sol",
  "compiler": {
    "name": "solc",
    "version": "0.8.2+commit.661d1103.Emscripten.clang"
  },
  "schemaVersion": "3.4.16",
  "updatedAt": "2024-04-11T12:53:45.923Z",
  "networkType": "ethereum",
  "devdoc": {
    "kind": "dev",
    "methods": {},
    "version": 1
  },
  "userdoc": {
    "kind": "user",
    "methods": {},
    "version": 1
  }
}